{
  "_format": "hh-sol-artifact-1",
  "contractName": "CipherGavel",
  "sourceName": "contracts/CipherGavel.sol",
  "abi": [
    {
      "inputs": [
        {
          "internalType": "uint256",
          "name": "_depositWei",
          "type": "uint256"
        },
        {
          "internalType": "uint256",
          "name": "_biddingPeriodSeconds",
          "type": "uint256"
        },
        {
          "internalType": "uint8",
          "name": "_maxBidders",
          "type": "uint8"
        }
      ],
      "stateMutability": "nonpayable",
      "type": "constructor"
    },
    {
      "inputs": [],
      "name": "InvalidKMSSignatures",
      "type": "error"
    },
    {
      "inputs": [
        {
          "internalType": "bytes32",
          "name": "handle",
          "type": "bytes32"
        },
        {
          "internalType": "address",
          "name": "sender",
          "type": "address"
        }
      ],
      "name": "SenderNotAllowedToUseHandle",
      "type": "error"
    },
    {
      "inputs": [],
      "name": "ZamaProtocolUnsupported",
      "type": "error"
    },
    {
      "anonymous": false,
      "inputs": [
        {
          "indexed": false,
          "internalType": "uint256",
          "name": "bidCount",
          "type": "uint256"
        }
      ],
      "name": "AuctionClosed",
      "type": "event"
    },
    {
      "anonymous": false,
      "inputs": [
        {
          "indexed": true,
          "internalType": "address",
          "name": "bidder",
          "type": "address"
        },
        {
          "indexed": true,
          "internalType": "uint256",
          "name": "index",
          "type": "uint256"
        }
      ],
      "name": "BidPlaced",
      "type": "event"
    },
    {
      "anonymous": false,
      "inputs": [
        {
          "indexed": true,
          "internalType": "address",
          "name": "bidder",
          "type": "address"
        },
        {
          "indexed": false,
          "internalType": "uint256",
          "name": "amount",
          "type": "uint256"
        }
      ],
      "name": "DepositWithdrawn",
      "type": "event"
    },
    {
      "anonymous": false,
      "inputs": [
        {
          "indexed": false,
          "internalType": "bytes32[]",
          "name": "handlesList",
          "type": "bytes32[]"
        },
        {
          "indexed": false,
          "internalType": "bytes",
          "name": "abiEncodedCleartexts",
          "type": "bytes"
        }
      ],
      "name": "PublicDecryptionVerified",
      "type": "event"
    },
    {
      "anonymous": false,
      "inputs": [
        {
          "indexed": true,
          "internalType": "address",
          "name": "seller",
          "type": "address"
        }
      ],
      "name": "ReserveSet",
      "type": "event"
    },
    {
      "anonymous": false,
      "inputs": [
        {
          "indexed": true,
          "internalType": "address",
          "name": "winner",
          "type": "address"
        },
        {
          "indexed": false,
          "internalType": "uint64",
          "name": "clearingPrice",
          "type": "uint64"
        },
        {
          "indexed": false,
          "internalType": "bool",
          "name": "reserveMet",
          "type": "bool"
        }
      ],
      "name": "ResultPublished",
      "type": "event"
    },
    {
      "inputs": [
        {
          "internalType": "uint256",
          "name": "i",
          "type": "uint256"
        }
      ],
      "name": "bidAmountAt",
      "outputs": [
        {
          "internalType": "euint64",
          "name": "",
          "type": "bytes32"
        }
      ],
      "stateMutability": "view",
      "type": "function"
    },
    {
      "inputs": [],
      "name": "bidCount",
      "outputs": [
        {
          "internalType": "uint256",
          "name": "",
          "type": "uint256"
        }
      ],
      "stateMutability": "view",
      "type": "function"
    },
    {
      "inputs": [
        {
          "internalType": "uint256",
          "name": "i",
          "type": "uint256"
        }
      ],
      "name": "bidderAt",
      "outputs": [
        {
          "internalType": "address",
          "name": "",
          "type": "address"
        }
      ],
      "stateMutability": "view",
      "type": "function"
    },
    {
      "inputs": [],
      "name": "biddingDeadline",
      "outputs": [
        {
          "internalType": "uint256",
          "name": "",
          "type": "uint256"
        }
      ],
      "stateMutability": "view",
      "type": "function"
    },
    {
      "inputs": [],
      "name": "clearingPrice",
      "outputs": [
        {
          "internalType": "uint64",
          "name": "",
          "type": "uint64"
        }
      ],
      "stateMutability": "view",
      "type": "function"
    },
    {
      "inputs": [],
      "name": "closeAuction",
      "outputs": [],
      "stateMutability": "nonpayable",
      "type": "function"
    },
    {
      "inputs": [],
      "name": "confidentialProtocolId",
      "outputs": [
        {
          "internalType": "uint256",
          "name": "",
          "type": "uint256"
        }
      ],
      "stateMutability": "view",
      "type": "function"
    },
    {
      "inputs": [
        {
          "internalType": "address",
          "name": "",
          "type": "address"
        }
      ],
      "name": "depositOf",
      "outputs": [
        {
          "internalType": "uint256",
          "name": "",
          "type": "uint256"
        }
      ],
      "stateMutability": "view",
      "type": "function"
    },
    {
      "inputs": [],
      "name": "depositWei",
      "outputs": [
        {
          "internalType": "uint256",
          "name": "",
          "type": "uint256"
        }
      ],
      "stateMutability": "view",
      "type": "function"
    },
    {
      "inputs": [
        {
          "internalType": "bytes",
          "name": "abiEncodedCleartexts",
          "type": "bytes"
        },
        {
          "internalType": "bytes",
          "name": "decryptionProof",
          "type": "bytes"
        }
      ],
      "name": "finalize",
      "outputs": [],
      "stateMutability": "nonpayable",
      "type": "function"
    },
    {
      "inputs": [],
      "name": "getClearingPriceEnc",
      "outputs": [
        {
          "internalType": "euint64",
          "name": "",
          "type": "bytes32"
        }
      ],
      "stateMutability": "view",
      "type": "function"
    },
    {
      "inputs": [],
      "name": "getReserveMetEnc",
      "outputs": [
        {
          "internalType": "euint32",
          "name": "",
          "type": "bytes32"
        }
      ],
      "stateMutability": "view",
      "type": "function"
    },
    {
      "inputs": [],
      "name": "getWinnerIndexEnc",
      "outputs": [
        {
          "internalType": "euint32",
          "name": "",
          "type": "bytes32"
        }
      ],
      "stateMutability": "view",
      "type": "function"
    },
    {
      "inputs": [
        {
          "internalType": "address",
          "name": "",
          "type": "address"
        }
      ],
      "name": "hasBid",
      "outputs": [
        {
          "internalType": "bool",
          "name": "",
          "type": "bool"
        }
      ],
      "stateMutability": "view",
      "type": "function"
    },
    {
      "inputs": [],
      "name": "maxBidders",
      "outputs": [
        {
          "internalType": "uint8",
          "name": "",
          "type": "uint8"
        }
      ],
      "stateMutability": "view",
      "type": "function"
    },
    {
      "inputs": [],
      "name": "phase",
      "outputs": [
        {
          "internalType": "enum CipherGavel.Phase",
          "name": "",
          "type": "uint8"
        }
      ],
      "stateMutability": "view",
      "type": "function"
    },
    {
      "inputs": [
        {
          "internalType": "externalEuint64",
          "name": "encBid",
          "type": "bytes32"
        },
        {
          "internalType": "bytes",
          "name": "inputProof",
          "type": "bytes"
        }
      ],
      "name": "placeBid",
      "outputs": [],
      "stateMutability": "payable",
      "type": "function"
    },
    {
      "inputs": [
        {
          "internalType": "uint32",
          "name": "_winnerIndex",
          "type": "uint32"
        },
        {
          "internalType": "uint64",
          "name": "_clearingPrice",
          "type": "uint64"
        },
        {
          "internalType": "bool",
          "name": "_reserveMet",
          "type": "bool"
        }
      ],
      "name": "publishResult",
      "outputs": [],
      "stateMutability": "nonpayable",
      "type": "function"
    },
    {
      "inputs": [],
      "name": "reserveMet",
      "outputs": [
        {
          "internalType": "bool",
          "name": "",
          "type": "bool"
        }
      ],
      "stateMutability": "view",
      "type": "function"
    },
    {
      "inputs": [],
      "name": "reserveSet",
      "outputs": [
        {
          "internalType": "bool",
          "name": "",
          "type": "bool"
        }
      ],
      "stateMutability": "view",
      "type": "function"
    },
    {
      "inputs": [],
      "name": "resultPublished",
      "outputs": [
        {
          "internalType": "bool",
          "name": "",
          "type": "bool"
        }
      ],
      "stateMutability": "view",
      "type": "function"
    },
    {
      "inputs": [],
      "name": "seller",
      "outputs": [
        {
          "internalType": "address",
          "name": "",
          "type": "address"
        }
      ],
      "stateMutability": "view",
      "type": "function"
    },
    {
      "inputs": [
        {
          "internalType": "externalEuint64",
          "name": "encReserve",
          "type": "bytes32"
        },
        {
          "internalType": "bytes",
          "name": "inputProof",
          "type": "bytes"
        }
      ],
      "name": "setReserve",
      "outputs": [],
      "stateMutability": "nonpayable",
      "type": "function"
    },
    {
      "inputs": [],
      "name": "winner",
      "outputs": [
        {
          "internalType": "address",
          "name": "",
          "type": "address"
        }
      ],
      "stateMutability": "view",
      "type": "function"
    },
    {
      "inputs": [],
      "name": "winnerIndex",
      "outputs": [
        {
          "internalType": "uint32",
          "name": "",
          "type": "uint32"
        }
      ],
      "stateMutability": "view",
      "type": "function"
    },
    {
      "inputs": [],
      "name": "withdrawDeposit",
      "outputs": [],
      "stateMutability": "nonpayable",
      "type": "function"
    }
  ],
  "bytecode": "0x610100604052348015610010575f5ffd5b506040516127f13803806127f183398101604081905261002f91610455565b6100bd61003a61015e565b80515f5160206127d15f395f51905f5280546001600160a01b03199081166001600160a01b039384161790915560208301515f5160206127b15f395f51905f528054831691841691909117905560408301517f9e7b61f58c47dc699ac88507c4f5bb9f121c03808c5676a8078fe583e46497028054909216921691909117905550565b60018160ff16101580156100d55750600a8160ff1611155b6101185760405162461bcd60e51b815260206004820152601060248201526f06d61784269646465727320312e2e31360841b604482015260640160405180910390fd5b3360805260a083905261012b8242610491565b60c05260ff811660e0525f805460ff191681556101479061030d565b600481905561015590610328565b505050506104f7565b604080516060810182525f8082526020820181905291810191909152466001036101f7575060408051606080820183525f8083526020808401829052928401528251908101835273ca2e8f1f656cd25c01f05d0b243ab1ecd4a8ffb6815273d82385dada1ae3e969447f20a3164f6213100e75918101919091527377627828a55156b04ac0dc0eb30467f1a552bb039181019190915290565b4662aa36a703610276575060408051606080820183525f8083526020808401829052928401528251908101835273f0ffdc93b7e186bc2f8cb3daa75d86d1930a433d81527392c920834ec8941d2c77d188936e1f7a6f49c1279181019190915273be0e383937d564d7ff0bc3b46c51f0bf8d5c311a9181019190915290565b46617a69036102f4575060408051606080820183525f808352602080840182905292840152825190810183527350157cffd6bbfa2dece204a89ec419c23ef5755d815273e3a9105a3a932253a70f126eb1e3b589c643dd249181019190915273901f8942346f7ab3a01f6d7613119bca447bb0309181019190915290565b6040516373cac13b60e01b815260040160405180910390fd5b5f6103226001600160401b0383166005610348565b92915050565b5f8161033a576103375f61030d565b91505b61034482306103df565b5090565b5f5160206127b15f395f51905f5254604051639cd07acb60e01b81525f915f5160206127d15f395f51905f52916001600160a01b0390911690639cd07acb9061039790879087906004016104b0565b6020604051808303815f875af11580156103b3573d5f5f3e3d5ffd5b505050506040513d601f19601f820116820180604052508101906103d791906104e0565b949350505050565b5f5f5160206127d15f395f51905f528054604051635ca4b5b160e11b8152600481018690526001600160a01b03858116602483015292935091169063b9496b62906044015f604051808303815f87803b15801561043a575f5ffd5b505af115801561044c573d5f5f3e3d5ffd5b50505050505050565b5f5f5f60608486031215610467575f5ffd5b835160208501516040860151919450925060ff81168114610486575f5ffd5b809150509250925092565b8082018082111561032257634e487b7160e01b5f52601160045260245ffd5b82815260408101605483106104d357634e487b7160e01b5f52602160045260245ffd5b8260208301529392505050565b5f602082840312156104f0575f5ffd5b5051919050565b60805160a05160c05160e05161223a6105775f395f81816104250152610ea601525f81816101fe01528181610a0601528181610d74015261119501525f81816102740152610dd301525f81816101ae01528181610a3901528181610c3101528181610c5e01528181610c8b015281816110e6015261128b015261223a5ff3fe608060405260043610610199575f3560e01c80638a7bd6c6116100dc578063b40a562711610087578063e29de41c11610062578063e29de41c146104e8578063e33c6fe414610501578063e4813a4014610520578063f3998db11461053f575f5ffd5b8063b40a56271461047e578063d2639dbf14610492578063dfbf53ae146104c0575f5ffd5b80639ac73b00116100b75780639ac73b0014610400578063a097f3ac14610414578063b1c9fe6e14610459575f5ffd5b80638a7bd6c6146103975780638f00cbfa146103b65780639397e417146103ec575f5ffd5b806323e3fbd5116101475780634b00574d116101225780634b00574d14610337578063604662c41461034a578063888b4a601461035e5780638927b03014610383575f5ffd5b806323e3fbd5146102bf57806332a0f2d7146102ea578063378252f214610323575f5ffd5b8063117df08811610177578063117df0881461024f57806315488b88146102635780631b16bd7f14610296575f5ffd5b806308551a531461019d5780630fd388d3146101ed5780631134b83a1461022e575b5f5ffd5b3480156101a8575f5ffd5b506101d07f000000000000000000000000000000000000000000000000000000000000000081565b6040516001600160a01b0390911681526020015b60405180910390f35b3480156101f8575f5ffd5b506102207f000000000000000000000000000000000000000000000000000000000000000081565b6040519081526020016101e4565b348015610239575f5ffd5b5061024d610248366004611e70565b61055e565b005b34801561025a575f5ffd5b5061024d610814565b34801561026e575f5ffd5b506102207f000000000000000000000000000000000000000000000000000000000000000081565b3480156102a1575f5ffd5b506009546102af9060ff1681565b60405190151581526020016101e4565b3480156102ca575f5ffd5b506102206102d9366004611ed5565b60036020525f908152604090205481565b3480156102f5575f5ffd5b50600a5461030a9067ffffffffffffffff1681565b60405167ffffffffffffffff90911681526020016101e4565b34801561032e575f5ffd5b5061024d6109b2565b61024d610345366004611efb565b610d20565b348015610355575f5ffd5b50600654610220565b348015610369575f5ffd5b50600a546102af9068010000000000000000900460ff1681565b34801561038e575f5ffd5b5061022061106f565b3480156103a2575f5ffd5b506102206103b1366004611f72565b61107d565b3480156103c1575f5ffd5b506009546103d790610100900463ffffffff1681565b60405163ffffffff90911681526020016101e4565b3480156103f7575f5ffd5b50600754610220565b34801561040b575f5ffd5b50600854610220565b34801561041f575f5ffd5b506104477f000000000000000000000000000000000000000000000000000000000000000081565b60405160ff90911681526020016101e4565b348015610464575f5ffd5b505f546104719060ff1681565b6040516101e49190611f9d565b348015610489575f5ffd5b50600154610220565b34801561049d575f5ffd5b506102af6104ac366004611ed5565b60026020525f908152604090205460ff1681565b3480156104cb575f5ffd5b506009546101d0906501000000000090046001600160a01b031681565b3480156104f3575f5ffd5b506005546102af9060ff1681565b34801561050c575f5ffd5b506101d061051b366004611f72565b6110a8565b34801561052b575f5ffd5b5061024d61053a366004611efb565b6110db565b34801561054a575f5ffd5b5061024d610559366004611fed565b611280565b60015f5460ff16600281111561057657610576611f89565b146105b55760405162461bcd60e51b815260206004820152600a602482015269139bdd0818db1bdcd95960b21b60448201526064015b60405180910390fd5b604080516003808252608082019092525f91602082016060803683370190505090506105e060065490565b815f815181106105f2576105f2612035565b60209081029190910101526007548160018151811061061357610613612035565b60209081029190910101526008548160028151811061063457610634612035565b60200260200101818152505061064b8184846114ac565b5f5f5f858060200190518101906106629190612049565b600154929550909350915063ffffffff8416106106ad5760405162461bcd60e51b8152602060048201526009602482015268084c2c840d2dcc8caf60bb1b60448201526064016105ac565b6009805463ffffffff8086166101000264ffffffff001990921691909117909155600a805468010000000000000000928416600114830268ffffffffffffffffff1990911667ffffffffffffffff86161717908190550460ff16610711575f610744565b60018363ffffffff168154811061072a5761072a612035565b5f9182526020909120600290910201546001600160a01b03165b6009805460ff196001600160a01b0393909316650100000000000283167fffffffffffffff0000000000000000000000000000000000000000ffffffff009091161760019081179091555f80546002939192911690830217905550600954600a546040805167ffffffffffffffff861681526801000000000000000090920460ff1615156020830152650100000000009092046001600160a01b0316917f52e27a4474bb615aada05cb3868533b87520bc5bfbb9648fbd528b74b3947b79910160405180910390a2505050505050565b60025f5460ff16600281111561082c5761082c611f89565b146108795760405162461bcd60e51b815260206004820152600c60248201527f4e6f742072657665616c6564000000000000000000000000000000000000000060448201526064016105ac565b335f90815260036020526040902054806108d55760405162461bcd60e51b815260206004820152601360248201527f4e6f7468696e6720746f2077697468647261770000000000000000000000000060448201526064016105ac565b335f818152600360205260408082208290555190919083908381818185875af1925050503d805f8114610923576040519150601f19603f3d011682016040523d82523d5f602084013e610928565b606091505b50509050806109795760405162461bcd60e51b815260206004820152600f60248201527f5472616e73666572206661696c6564000000000000000000000000000000000060448201526064016105ac565b60405182815233907f4482101800a5c2e900f4156e57e05e19ffd7b366cde579553d723fd3abb2180e9060200160405180910390a25050565b5f5f5460ff1660028111156109c9576109c9611f89565b14610a045760405162461bcd60e51b815260206004820152600b60248201526a4e6f742062696464696e6760a81b60448201526064016105ac565b7f000000000000000000000000000000000000000000000000000000000000000042101580610a5b5750336001600160a01b037f000000000000000000000000000000000000000000000000000000000000000016145b610aa75760405162461bcd60e51b815260206004820152600960248201527f546f6f206561726c79000000000000000000000000000000000000000000000060448201526064016105ac565b600154610af65760405162461bcd60e51b815260206004820152600760248201527f4e6f20626964730000000000000000000000000000000000000000000000000060448201526064016105ac565b5f610b005f611517565b90505f610b0c5f611517565b90505f610b185f611533565b90505f5b600154811015610ba4575f60018281548110610b3a57610b3a612035565b905f5260205f2090600202016001015490505f610b578287611545565b90505f610b64868461157a565b9050610b718288836115a8565b9550610b7e8284896115a8565b9650610b9382610b8d86611533565b876115ef565b94505060019092019150610b1c9050565b505f610bb284600454611620565b90505f610bc18460045461157a565b90505f610bd78383610bd25f611517565b6115a8565b90505f610bf684610be86001611533565b610bf15f611533565b6115ef565b6006869055600783905560088190559050610c108561164e565b50610c1c60075461166e565b50610c2860085461164e565b50610c556006547f000000000000000000000000000000000000000000000000000000000000000061167d565b50610c826007547f00000000000000000000000000000000000000000000000000000000000000006116a0565b50610caf6008547f000000000000000000000000000000000000000000000000000000000000000061167d565b50610cbb6006546116af565b50610cc76007546116ca565b50610cd36008546116af565b505f805460ff19166001908117909155546040519081527fac4a907ec29adcc56774b757ecb1e1b4d597374fc9386107d05e2670259df7d39060200160405180910390a150505050505050565b5f5f5460ff166002811115610d3757610d37611f89565b14610d725760405162461bcd60e51b815260206004820152600b60248201526a4e6f742062696464696e6760a81b60448201526064016105ac565b7f00000000000000000000000000000000000000000000000000000000000000004210610dd15760405162461bcd60e51b815260206004820152600d60248201526c109a59191a5b99c8195b991959609a1b60448201526064016105ac565b7f00000000000000000000000000000000000000000000000000000000000000003414610e405760405162461bcd60e51b815260206004820152600d60248201527f57726f6e67206465706f7369740000000000000000000000000000000000000060448201526064016105ac565b335f9081526002602052604090205460ff1615610e9f5760405162461bcd60e51b815260206004820152600b60248201527f416c72656164792062696400000000000000000000000000000000000000000060448201526064016105ac565b60015460ff7f00000000000000000000000000000000000000000000000000000000000000001611610f135760405162461bcd60e51b815260206004820152600c60248201527f41756374696f6e2066756c6c000000000000000000000000000000000000000060448201526064016105ac565b5f610f538484848080601f0160208091040260200160405190810160405280939291908181526020018383808284375f920191909152506116d992505050565b9050610f5e8161166e565b50610f6981336116a0565b506040805180820182523380825260208083018581526001805480820182555f82815295517fb10e2d527612073b26eecdfd717e6a320cf44b4afac2b0732d9fcbe2b7fa0cf6600292830290810180547fffffffffffffffffffffffff0000000000000000000000000000000000000000166001600160a01b039093169290921790915592517fb10e2d527612073b26eecdfd717e6a320cf44b4afac2b0732d9fcbe2b7fa0cf7909301929092559284528152838320805460ff19168317905560039052919020349055805461103f9190612088565b60405133907f3fabff0a9c3ecd6814702e247fa9733e5d0aa69e3a38590f92cb18f623a2254d905f90a350505050565b5f61107861173f565b905090565b5f6001828154811061109157611091612035565b905f5260205f209060020201600101549050919050565b5f600182815481106110bc576110bc612035565b5f9182526020909120600290910201546001600160a01b031692915050565b336001600160a01b037f000000000000000000000000000000000000000000000000000000000000000016146111415760405162461bcd60e51b815260206004820152600b60248201526a27b7363c9039b2b63632b960a91b60448201526064016105ac565b5f5f5460ff16600281111561115857611158611f89565b146111935760405162461bcd60e51b815260206004820152600b60248201526a4e6f742062696464696e6760a81b60448201526064016105ac565b7f000000000000000000000000000000000000000000000000000000000000000042106111f25760405162461bcd60e51b815260206004820152600d60248201526c109a59191a5b99c8195b991959609a1b60448201526064016105ac565b5f6112328484848080601f0160208091040260200160405190810160405280939291908181526020018383808284375f920191909152506116d992505050565b600481905590506112428161166e565b506005805460ff1916600117905560405133907ffbebf27e430f83725e26527d071ece14a3542fb0ab947b63747e1739708378b5905f90a250505050565b336001600160a01b037f000000000000000000000000000000000000000000000000000000000000000016146112e65760405162461bcd60e51b815260206004820152600b60248201526a27b7363c9039b2b63632b960a91b60448201526064016105ac565b60015f5460ff1660028111156112fe576112fe611f89565b146113385760405162461bcd60e51b815260206004820152600a602482015269139bdd0818db1bdcd95960b21b60448201526064016105ac565b60015463ffffffff84161061137b5760405162461bcd60e51b8152602060048201526009602482015268084c2c840d2dcc8caf60bb1b60448201526064016105ac565b6009805464ffffffff00191661010063ffffffff861602179055600a805467ffffffffffffffff841668ffffffffffffffffff19909116176801000000000000000083151502179055806113cf575f611402565b60018363ffffffff16815481106113e8576113e8612035565b5f9182526020909120600290910201546001600160a01b03165b6009805460ff196001600160a01b039384166501000000000090810282167fffffffffffffff0000000000000000000000000000000000000000ffffffff0090931692909217600117928390555f8054600292169190911790556040805167ffffffffffffffff871681528515156020820152815192909304909316927f52e27a4474bb615aada05cb3868533b87520bc5bfbb9648fbd528b74b3947b79928290030190a2505050565b5f6114b8848484611773565b9050806114d85760405163cf6c44e960e01b815260040160405180910390fd5b7fc6366bab028b8d033cb362cfd1f2f3457ef4e92fc738b6788b90d5a7846367a0848460405161150992919061210f565b60405180910390a150505050565b5f61152d8267ffffffffffffffff166005611820565b92915050565b5f61152d8263ffffffff166004611820565b5f82611557576115545f611517565b92505b81611568576115655f611517565b91505b61157383835f6118c2565b9392505050565b5f8261158c576115895f611517565b92505b8161159d5761159a5f611517565b91505b61157383835f611992565b5f836115ba576115b75f611a1c565b93505b826115cb576115c85f611517565b92505b816115dc576115d95f611517565b91505b6115e7848484611a37565b949350505050565b5f83611601576115fe5f611a1c565b93505b826116125761160f5f611533565b92505b816115dc576115d95f611533565b5f826116325761162f5f611517565b92505b81611643576116405f611517565b91505b61157383835f611ac4565b5f816116605761165d5f611533565b91505b61166a8230611b4e565b5090565b5f816116605761165d5f611517565b5f8261168f5761168c5f611533565b92505b6116998383611b4e565b5090919050565b5f8261168f5761168c5f611517565b5f816116c1576116be5f611533565b91505b61166a82611bc2565b5f816116c1576116be5f611517565b5f81515f146116f5576116ee83836005611c40565b905061152d565b825f81900361170f576117075f611517565b91505061152d565b6117198133611d4d565b6116ee57604051630276b5d960e01b8152600481018290523360248201526044016105ac565b5f4660010361174e5750600190565b4662aa36a70361175f575061271190565b46617a690361176e57505f1990565b505f90565b7f9e7b61f58c47dc699ac88507c4f5bb9f121c03808c5676a8078fe583e4649702546040516378542ead60e01b81525f915f51602061220e5f395f51905f52916001600160a01b03909116906378542ead906117d790889088908890600401612133565b6020604051808303815f875af11580156117f3573d5f5f3e3d5ffd5b505050506040513d601f19601f82011682018060405250810190611817919061216b565b95945050505050565b7f9e7b61f58c47dc699ac88507c4f5bb9f121c03808c5676a8078fe583e464970154604051639cd07acb60e01b81525f915f51602061220e5f395f51905f52916001600160a01b0390911690639cd07acb90611882908790879060040161219a565b6020604051808303815f875af115801561189e573d5f5f3e3d5ffd5b505050506040513d601f19601f820116820180604052508101906115e791906121ae565b5f5f82156118d55750600160f81b6118d8565b505f5b7f9e7b61f58c47dc699ac88507c4f5bb9f121c03808c5676a8078fe583e4649701546040516385362ee760e01b815260048101879052602481018690526001600160f81b0319831660448201525f51602061220e5f395f51905f52916001600160a01b0316906385362ee7906064015b6020604051808303815f875af1158015611964573d5f5f3e3d5ffd5b505050506040513d601f19601f8201168201806040525081019061198891906121ae565b9695505050505050565b5f5f82156119a55750600160f81b6119a8565b505f5b7f9e7b61f58c47dc699ac88507c4f5bb9f121c03808c5676a8078fe583e464970154604051630d8c635960e21b815260048101879052602481018690526001600160f81b0319831660448201525f51602061220e5f395f51905f52916001600160a01b0316906336318d6490606401611948565b5f61152d82611a2b575f611a2e565b60015b60ff165f611820565b5f805f51602061220e5f395f51905f526001810154604051637702dcff60e01b81526004810188905260248101879052604481018690529192506001600160a01b031690637702dcff906064016020604051808303815f875af1158015611aa0573d5f5f3e3d5ffd5b505050506040513d601f19601f8201168201806040525081019061181791906121ae565b5f5f8215611ad75750600160f81b611ada565b505f5b7f9e7b61f58c47dc699ac88507c4f5bb9f121c03808c5676a8078fe583e464970154604051631391547f60e01b815260048101879052602481018690526001600160f81b0319831660448201525f51602061220e5f395f51905f52916001600160a01b031690631391547f90606401611948565b5f51602061220e5f395f51905f528054604051635ca4b5b160e11b8152600481018590526001600160a01b0384811660248301529091169063b9496b62906044015b5f604051808303815f87803b158015611ba7575f5ffd5b505af1158015611bb9573d5f5f3e3d5ffd5b50505050505050565b6040805160018082528183019092525f51602061220e5f395f51905f52915f91906020808301908036833701905050905082815f81518110611c0657611c06612035565b60209081029190910101528154604051637d6e912360e11b81526001600160a01b039091169063fadd224690611b909084906004016121c5565b7f9e7b61f58c47dc699ac88507c4f5bb9f121c03808c5676a8078fe583e46497015460405163045fc19560e11b81525f915f51602061220e5f395f51905f52916001600160a01b03909116906308bf832a90611ca69088903390899089906004016121d7565b6020604051808303815f875af1158015611cc2573d5f5f3e3d5ffd5b505050506040513d601f19601f82011682018060405250810190611ce691906121ae565b8154604051630f8e573b60e21b8152600481018390523360248201529193506001600160a01b031690633e395cec906044015f604051808303815f87803b158015611d2f575f5ffd5b505af1158015611d41573d5f5f3e3d5ffd5b50505050509392505050565b5f805f51602061220e5f395f51905f5280546040516382027b6d60e01b8152600481018790526001600160a01b0386811660248301529293509116906382027b6d90604401602060405180830381865afa158015611dad573d5f5f3e3d5ffd5b505050506040513d601f19601f820116820180604052508101906115e7919061216b565b634e487b7160e01b5f52604160045260245ffd5b5f82601f830112611df4575f5ffd5b813567ffffffffffffffff811115611e0e57611e0e611dd1565b604051601f8201601f19908116603f0116810167ffffffffffffffff81118282101715611e3d57611e3d611dd1565b604052818152838201602001851015611e54575f5ffd5b816020850160208301375f918101602001919091529392505050565b5f5f60408385031215611e81575f5ffd5b823567ffffffffffffffff811115611e97575f5ffd5b611ea385828601611de5565b925050602083013567ffffffffffffffff811115611ebf575f5ffd5b611ecb85828601611de5565b9150509250929050565b5f60208284031215611ee5575f5ffd5b81356001600160a01b0381168114611573575f5ffd5b5f5f5f60408486031215611f0d575f5ffd5b83359250602084013567ffffffffffffffff811115611f2a575f5ffd5b8401601f81018613611f3a575f5ffd5b803567ffffffffffffffff811115611f50575f5ffd5b866020828401011115611f61575f5ffd5b939660209190910195509293505050565b5f60208284031215611f82575f5ffd5b5035919050565b634e487b7160e01b5f52602160045260245ffd5b6020810160038310611fb157611fb1611f89565b91905290565b63ffffffff81168114611fc8575f5ffd5b50565b67ffffffffffffffff81168114611fc8575f5ffd5b8015158114611fc8575f5ffd5b5f5f5f60608486031215611fff575f5ffd5b833561200a81611fb7565b9250602084013561201a81611fcb565b9150604084013561202a81611fe0565b809150509250925092565b634e487b7160e01b5f52603260045260245ffd5b5f5f5f6060848603121561205b575f5ffd5b835161206681611fb7565b602085015190935061207781611fcb565b604085015190925061202a81611fb7565b8181038181111561152d57634e487b7160e01b5f52601160045260245ffd5b5f8151808452602084019350602083015f5b828110156120d75781518652602095860195909101906001016120b9565b5093949350505050565b5f81518084528060208401602086015e5f602082860101526020601f19601f83011685010191505092915050565b604081525f61212160408301856120a7565b828103602084015261181781856120e1565b606081525f61214560608301866120a7565b828103602084015261215781866120e1565b9050828103604084015261198881856120e1565b5f6020828403121561217b575f5ffd5b815161157381611fe0565b6054811061219657612196611f89565b9052565b828152604081016115736020830184612186565b5f602082840312156121be575f5ffd5b5051919050565b602081525f61157360208301846120a7565b8481526001600160a01b0384166020820152608060408201525f6121fe60808301856120e1565b9050611817606083018461218656fe9e7b61f58c47dc699ac88507c4f5bb9f121c03808c5676a8078fe583e4649700a164736f6c634300081b000a9e7b61f58c47dc699ac88507c4f5bb9f121c03808c5676a8078fe583e46497019e7b61f58c47dc699ac88507c4f5bb9f121c03808c5676a8078fe583e4649700",
  "linkReferences": {},
  "deployedLinkReferences": {}
}